{
  "_format": "hh-sol-artifact-1",
  "contractName": "ProposalVoting",
  "sourceName": "contracts/Voting.sol",
  "abi": [
    {
      "inputs": [
        {
          "internalType": "string",
          "name": "_appName",
          "type": "string"
        }
      ],
      "stateMutability": "nonpayable",
      "type": "constructor"
    },
    {
      "inputs": [
        {
          "internalType": "string",
          "name": "_proposal",
          "type": "string"
        }
      ],
      "name": "addProposal",
      "outputs": [],
      "stateMutability": "nonpayable",
      "type": "function"
    },
    {
      "inputs": [],
      "name": "appName",
      "outputs": [
        {
          "internalType": "string",
          "name": "",
          "type": "string"
        }
      ],
      "stateMutability": "view",
      "type": "function"
    },
    {
      "inputs": [],
      "name": "getAllProposals",
      "outputs": [
        {
          "components": [
            {
              "internalType": "uint256",
              "name": "id",
              "type": "uint256"
            },
            {
              "internalType": "address",
              "name": "proposer",
              "type": "address"
            },
            {
              "internalType": "string",
              "name": "proposal",
              "type": "string"
            },
            {
              "internalType": "uint256",
              "name": "votes",
              "type": "uint256"
            },
            {
              "internalType": "address[]",
              "name": "voters",
              "type": "address[]"
            }
          ],
          "internalType": "struct ProposalVoting.Proposal[]",
          "name": "",
          "type": "tuple[]"
        }
      ],
      "stateMutability": "view",
      "type": "function"
    },
    {
      "inputs": [
        {
          "internalType": "uint256",
          "name": "_proposalId",
          "type": "uint256"
        }
      ],
      "name": "getProposal",
      "outputs": [
        {
          "components": [
            {
              "internalType": "uint256",
              "name": "id",
              "type": "uint256"
            },
            {
              "internalType": "address",
              "name": "proposer",
              "type": "address"
            },
            {
              "internalType": "string",
              "name": "proposal",
              "type": "string"
            },
            {
              "internalType": "uint256",
              "name": "votes",
              "type": "uint256"
            },
            {
              "internalType": "address[]",
              "name": "voters",
              "type": "address[]"
            }
          ],
          "internalType": "struct ProposalVoting.Proposal",
          "name": "",
          "type": "tuple"
        }
      ],
      "stateMutability": "view",
      "type": "function"
    },
    {
      "inputs": [
        {
          "internalType": "uint256",
          "name": "",
          "type": "uint256"
        }
      ],
      "name": "proposals",
      "outputs": [
        {
          "internalType": "uint256",
          "name": "id",
          "type": "uint256"
        },
        {
          "internalType": "address",
          "name": "proposer",
          "type": "address"
        },
        {
          "internalType": "string",
          "name": "proposal",
          "type": "string"
        },
        {
          "internalType": "uint256",
          "name": "votes",
          "type": "uint256"
        }
      ],
      "stateMutability": "view",
      "type": "function"
    },
    {
      "inputs": [
        {
          "internalType": "uint256",
          "name": "_proposalId",
          "type": "uint256"
        }
      ],
      "name": "vote",
      "outputs": [],
      "stateMutability": "nonpayable",
      "type": "function"
    }
  ],
  "bytecode": "0x60806040523480156200001157600080fd5b50604051620017ed380380620017ed833981810160405281019062000037919062000179565b80600090805190602001906200004f92919062000057565b50506200032e565b828054620000659062000253565b90600052602060002090601f016020900481019282620000895760008555620000d5565b82601f10620000a457805160ff1916838001178555620000d5565b82800160010185558215620000d5579182015b82811115620000d4578251825591602001919060010190620000b7565b5b509050620000e49190620000e8565b5090565b5b8082111562000103576000816000905550600101620000e9565b5090565b60006200011e6200011884620001e7565b620001be565b9050828152602081018484840111156200013757600080fd5b620001448482856200021d565b509392505050565b600082601f8301126200015e57600080fd5b81516200017084826020860162000107565b91505092915050565b6000602082840312156200018c57600080fd5b600082015167ffffffffffffffff811115620001a757600080fd5b620001b5848285016200014c565b91505092915050565b6000620001ca620001dd565b9050620001d8828262000289565b919050565b6000604051905090565b600067ffffffffffffffff821115620002055762000204620002ee565b5b62000210826200031d565b9050602081019050919050565b60005b838110156200023d57808201518184015260208101905062000220565b838111156200024d576000848401525b50505050565b600060028204905060018216806200026c57607f821691505b60208210811415620002835762000282620002bf565b5b50919050565b62000294826200031d565b810181811067ffffffffffffffff82111715620002b657620002b5620002ee565b5b80604052505050565b7f4e487b7100000000000000000000000000000000000000000000000000000000600052602260045260246000fd5b7f4e487b7100000000000000000000000000000000000000000000000000000000600052604160045260246000fd5b6000601f19601f8301169050919050565b6114af806200033e6000396000f3fe608060405234801561001057600080fd5b50600436106100625760003560e01c80630121b93f14610067578063013cf08b146100835780630c97282c146100b65780632fdae3c5146100d4578063c7f758a8146100f0578063cceb68f514610120575b600080fd5b610081600480360381019061007c9190610cc1565b61013e565b005b61009d60048036038101906100989190610cc1565b6103a6565b6040516100ad949392919061107d565b60405180910390f35b6100be61048e565b6040516100cb9190610ff9565b60405180910390f35b6100ee60048036038101906100e99190610c80565b61051c565b005b61010a60048036038101906101059190610cc1565b6106ab565b604051610117919061105b565b60405180910390f35b6101286108a8565b6040516101359190610fd7565b60405180910390f35b60006001808361014e9190611214565b81548110610185577f4e487b7100000000000000000000000000000000000000000000000000000000600052603260045260246000fd5b906000526020600020906005020190503373ffffffffffffffffffffffffffffffffffffffff168160010160009054906101000a900473ffffffffffffffffffffffffffffffffffffffff1673ffffffffffffffffffffffffffffffffffffffff161415610228576040517f08c379a000000000000000000000000000000000000000000000000000000000815260040161021f9061101b565b60405180910390fd5b60005b8160040180549050811015610322573373ffffffffffffffffffffffffffffffffffffffff1682600401828154811061028d577f4e487b7100000000000000000000000000000000000000000000000000000000600052603260045260246000fd5b9060005260206000200160009054906101000a900473ffffffffffffffffffffffffffffffffffffffff1673ffffffffffffffffffffffffffffffffffffffff16141561030f576040517f08c379a00000000000000000000000000000000000000000000000000000000081526004016103069061103b565b60405180910390fd5b808061031a90611329565b91505061022b565b5080600301600081548092919061033890611329565b919050555080600401339080600181540180825580915050600190039060005260206000200160009091909190916101000a81548173ffffffffffffffffffffffffffffffffffffffff021916908373ffffffffffffffffffffffffffffffffffffffff1602179055505050565b600181815481106103b657600080fd5b90600052602060002090600502016000915090508060000154908060010160009054906101000a900473ffffffffffffffffffffffffffffffffffffffff1690806002018054610405906112c6565b80601f0160208091040260200160405190810160405280929190818152602001828054610431906112c6565b801561047e5780601f106104535761010080835404028352916020019161047e565b820191906000526020600020905b81548152906001019060200180831161046157829003601f168201915b5050505050908060030154905084565b6000805461049b906112c6565b80601f01602080910402602001604051908101604052809291908181526020018280546104c7906112c6565b80156105145780601f106104e957610100808354040283529160200191610514565b820191906000526020600020905b8154815290600101906020018083116104f757829003601f168201915b505050505081565b6000600180549050905060006040518060a0016040528060018461054091906111be565b81526020013373ffffffffffffffffffffffffffffffffffffffff16815260200184815260200160008152602001600067ffffffffffffffff8111156105af577f4e487b7100000000000000000000000000000000000000000000000000000000600052604160045260246000fd5b6040519080825280602002602001820160405280156105dd5781602001602082028036833780820191505090505b50815250905060018190806001815401808255809150506001900390600052602060002090600502016000909190919091506000820151816000015560208201518160010160006101000a81548173ffffffffffffffffffffffffffffffffffffffff021916908373ffffffffffffffffffffffffffffffffffffffff160217905550604082015181600201908051906020019061067c929190610a91565b506060820151816003015560808201518160040190805190602001906106a3929190610b17565b505050505050565b6106b3610ba1565b6000600180846106c39190611214565b815481106106fa577f4e487b7100000000000000000000000000000000000000000000000000000000600052603260045260246000fd5b90600052602060002090600502016040518060a0016040529081600082015481526020016001820160009054906101000a900473ffffffffffffffffffffffffffffffffffffffff1673ffffffffffffffffffffffffffffffffffffffff1673ffffffffffffffffffffffffffffffffffffffff168152602001600282018054610783906112c6565b80601f01602080910402602001604051908101604052809291908181526020018280546107af906112c6565b80156107fc5780601f106107d1576101008083540402835291602001916107fc565b820191906000526020600020905b8154815290600101906020018083116107df57829003601f168201915b50505050508152602001600382015481526020016004820180548060200260200160405190810160405280929190818152602001828054801561089457602002820191906000526020600020905b8160009054906101000a900473ffffffffffffffffffffffffffffffffffffffff1673ffffffffffffffffffffffffffffffffffffffff168152602001906001019080831161084a575b505050505081525050905080915050919050565b60606001805480602002602001604051908101604052809291908181526020016000905b82821015610a8857838290600052602060002090600502016040518060a0016040529081600082015481526020016001820160009054906101000a900473ffffffffffffffffffffffffffffffffffffffff1673ffffffffffffffffffffffffffffffffffffffff1673ffffffffffffffffffffffffffffffffffffffff16815260200160028201805461095f906112c6565b80601f016020809104026020016040519081016040528092919081815260200182805461098b906112c6565b80156109d85780601f106109ad576101008083540402835291602001916109d8565b820191906000526020600020905b8154815290600101906020018083116109bb57829003601f168201915b505050505081526020016003820154815260200160048201805480602002602001604051908101604052809291908181526020018280548015610a7057602002820191906000526020600020905b8160009054906101000a900473ffffffffffffffffffffffffffffffffffffffff1673ffffffffffffffffffffffffffffffffffffffff1681526020019060010190808311610a26575b505050505081525050815260200190600101906108cc565b50505050905090565b828054610a9d906112c6565b90600052602060002090601f016020900481019282610abf5760008555610b06565b82601f10610ad857805160ff1916838001178555610b06565b82800160010185558215610b06579182015b82811115610b05578251825591602001919060010190610aea565b5b509050610b139190610be6565b5090565b828054828255906000526020600020908101928215610b90579160200282015b82811115610b8f5782518260006101000a81548173ffffffffffffffffffffffffffffffffffffffff021916908373ffffffffffffffffffffffffffffffffffffffff16021790555091602001919060010190610b37565b5b509050610b9d9190610be6565b5090565b6040518060a0016040528060008152602001600073ffffffffffffffffffffffffffffffffffffffff1681526020016060815260200160008152602001606081525090565b5b80821115610bff576000816000905550600101610be7565b5090565b6000610c16610c11846110ee565b6110c9565b905082815260208101848484011115610c2e57600080fd5b610c39848285611284565b509392505050565b600082601f830112610c5257600080fd5b8135610c62848260208601610c03565b91505092915050565b600081359050610c7a81611462565b92915050565b600060208284031215610c9257600080fd5b600082013567ffffffffffffffff811115610cac57600080fd5b610cb884828501610c41565b91505092915050565b600060208284031215610cd357600080fd5b6000610ce184828501610c6b565b91505092915050565b6000610cf68383610d16565b60208301905092915050565b6000610d0e8383610ebf565b905092915050565b610d1f81611248565b82525050565b610d2e81611248565b82525050565b6000610d3f8261113f565b610d49818561117a565b9350610d548361111f565b8060005b83811015610d85578151610d6c8882610cea565b9750610d7783611160565b925050600181019050610d58565b5085935050505092915050565b6000610d9d8261114a565b610da7818561118b565b935083602082028501610db98561112f565b8060005b85811015610df55784840389528151610dd68582610d02565b9450610de18361116d565b925060208a01995050600181019050610dbd565b50829750879550505050505092915050565b6000610e1282611155565b610e1c818561119c565b9350610e2c818560208601611293565b610e35816113ff565b840191505092915050565b6000610e4b82611155565b610e5581856111ad565b9350610e65818560208601611293565b610e6e816113ff565b840191505092915050565b6000610e866020836111ad565b9150610e9182611410565b602082019050919050565b6000610ea9601e836111ad565b9150610eb482611439565b602082019050919050565b600060a083016000830151610ed76000860182610fb9565b506020830151610eea6020860182610d16565b5060408301518482036040860152610f028282610e07565b9150506060830151610f176060860182610fb9565b5060808301518482036080860152610f2f8282610d34565b9150508091505092915050565b600060a083016000830151610f546000860182610fb9565b506020830151610f676020860182610d16565b5060408301518482036040860152610f7f8282610e07565b9150506060830151610f946060860182610fb9565b5060808301518482036080860152610fac8282610d34565b9150508091505092915050565b610fc28161127a565b82525050565b610fd18161127a565b82525050565b60006020820190508181036000830152610ff18184610d92565b905092915050565b600060208201905081810360008301526110138184610e40565b905092915050565b6000602082019050818103600083015261103481610e79565b9050919050565b6000602082019050818103600083015261105481610e9c565b9050919050565b600060208201905081810360008301526110758184610f3c565b905092915050565b60006080820190506110926000830187610fc8565b61109f6020830186610d25565b81810360408301526110b18185610e40565b90506110c06060830184610fc8565b95945050505050565b60006110d36110e4565b90506110df82826112f8565b919050565b6000604051905090565b600067ffffffffffffffff821115611109576111086113d0565b5b611112826113ff565b9050602081019050919050565b6000819050602082019050919050565b6000819050602082019050919050565b600081519050919050565b600081519050919050565b600081519050919050565b6000602082019050919050565b6000602082019050919050565b600082825260208201905092915050565b600082825260208201905092915050565b600082825260208201905092915050565b600082825260208201905092915050565b60006111c98261127a565b91506111d48361127a565b9250827fffffffffffffffffffffffffffffffffffffffffffffffffffffffffffffffff0382111561120957611208611372565b5b828201905092915050565b600061121f8261127a565b915061122a8361127a565b92508282101561123d5761123c611372565b5b828203905092915050565b60006112538261125a565b9050919050565b600073ffffffffffffffffffffffffffffffffffffffff82169050919050565b6000819050919050565b82818337600083830152505050565b60005b838110156112b1578082015181840152602081019050611296565b838111156112c0576000848401525b50505050565b600060028204905060018216806112de57607f821691505b602082108114156112f2576112f16113a1565b5b50919050565b611301826113ff565b810181811067ffffffffffffffff821117156113205761131f6113d0565b5b80604052505050565b60006113348261127a565b91507fffffffffffffffffffffffffffffffffffffffffffffffffffffffffffffffff82141561136757611366611372565b5b600182019050919050565b7f4e487b7100000000000000000000000000000000000000000000000000000000600052601160045260246000fd5b7f4e487b7100000000000000000000000000000000000000000000000000000000600052602260045260246000fd5b7f4e487b7100000000000000000000000000000000000000000000000000000000600052604160045260246000fd5b6000601f19601f8301169050919050565b7f43616e6e6f7420766f7465206f6e20796f7572206f776e2070726f706f73616c600082015250565b7f416c726561647920766f746564206f6e20746869732070726f706f73616c0000600082015250565b61146b8161127a565b811461147657600080fd5b5056fea2646970667358221220dd8f1411323f3499945a6b6d02d720db6874261ddbe25acfaf89b43c82d50f2964736f6c63430008040033",
  "linkReferences": {},
  "deployedLinkReferences": {}
}